:02000000682C6A
:10000800FF00030E8301BA000A08B0008A018B1CA6
:1000180012280130A10090308B00080030088A00B7
:0A0028003A0E8300FF0E7F0E090060
:100032008312031387170330FC009730FD00FD0B7A
:100042002028FC0B20280000000087130330FC004E
:100052009730FD00FD0B2B28FC0B2B280000000025
:02006200080094
:10006400831203131A08F100981C3A281812181660
:060074007108F000080015
:0E007A000030831203138C1A0130F0000800CE
:100088008312031345082202031852284508220246
:10009800031851281920A20A4A28080022084502F4
:1000A800031867280930220203185D281920A20ABC
:1000B80056281920A201450822020318662819208B
:0800C800A20A5F2808000800ED
:1000D000013083120313C50044201A30FC00F830AD
:1000E000FD00FD0B7128FC0B71280000871D7B288B
:1000F0003130F0000800871E80283230F000080000
:10010000871C85283330F00008000230C5004420E9
:100110001A30FC00F830FD00FD0B8C28FC0B8C28FD
:100120000000871D96283430F0000800871E9B28A9
:100130003530F0000800871CA0283630F000080099
:100140000430C50044201A30FC00F830FD00FD0BDF
:10015000A728FC0BA7280000871DB1283730F00026
:100160000800871EB6283830F0000800871CBB281E
:100170003930F00008000830C50044201A30FC0077
:10018000F830FD00FD0BC228FC0BC2280000871DC3
:10019000CC282A30F0000800871ED1283030F0002B
:1001A0000800871CD6282330F0000800F001080062
:0E01B000831203132F088A002E088200080015
:1001BE00831603139818E5280000DF2883124308DE
:0401CE00990008008C
:1001D20083120313C4013D207008003C0318F42865
:1001E20032207008C40044084306031DF928FA2887
:0401F200EC280800ED
:0801F600831203130712080035
:1001FE003D207008013A031D06293220FF28080011
:10020E00831203134108003C03182B2907150230F3
:10021E00FB000430FC00BA30FD00FD0B1429FC0B72
:10022E001429FB0B1429000007110230FB000430C7
:10023E00FC00BA30FD00FD0B2229FC0B2229FB0B22
:0A024E0022290000C103072908005F
:1002580083120313C2014208410784000008003AD0
:1002680003193E294208410784000008C300E92019
:06027800C20A2F29080054
:10027E00831203132108003A03194C2968207008D1
:0C028E00233A031D4C29A101FB200800AD
:08029A00831203130711080091
:1002A200831203134108003C031877290715071628
:1002B2000230FB000430FC00BA30FD00FD0B5F2968
:1002C200FC0B5F29FB0B5F290000071107120230AC
:1002D200FB000430FC00BA30FD00FD0B6E29FC0B64
:0E02E2006E29FB0B6E290000C1035129080094
:1002F000831203134108AE004208AF00D8208A11D0
:100300000A12F1007108003A031993294108AE005E
:100310004208AF00D8208A110A12C300DF20C10AA8
:080320000319C20A7829080044
:100328008312031306130B30FB002630FC005D30EC
:10033800FD00FD0B9D29FC0B9D29FB0B9D29000051
:10034800000006171530FB004B30FC00BE30FD00E6
:10035800FD0BAC29FC0BAC29FB0BAC2900000800F9
:10036800831203133E08003C0318D82907160230ED
:10037800FB000430FC00BA30FD00FD0BC129FC0B6A
:10038800C129FB0BC129000007120230FB00043011
:10039800FC00BA30FD00FD0BCF29FC0BCF29FB0B6D
:0A03A800CF290000BE03B4290800AD
:1003B20083120313C0013E0884000008BF003F08F7
:1003C200003A0319EE293F08C300DF20C00A4008A3
:0C03D2003E0784000008BF00E02908007E
:0803DE00831203130715080048
:1003E600313083120313C1000630C20078210D306C
:1003F600C300DF200630FB001330FC00AD30FD00EB
:10040600FD0B032AFC0B032AFB0B032A000000004A
:100416003430C1000630C20078210D30C300DF2021
:100426000A30C300E920FF203F213E08013A031DA0
:100436001F2A0130C10051210430C1000630C2001C
:100446007821A0012008283EF00006300318013E5E
:10045600F1007008AE007108AF00D8208A110A12A8
:10046600F1007108003A03194A2A2008283EF000D4
:1004760006300318013EF1007008AE007108AF00A7
:10048600D8208A110A12C300DF20A00A252A0D30BF
:10049600C300DF200A30C300E920FF203E08013AEE
:1004A600031D582A0130C10051212330C1002C21DF
:1004B600FF203F213E08013A031D642A0130C10096
:1004C60051211630C1000630C20078210D30C3001C
:1004D600DF200D30C300E920FF203F213E08013A0E
:1004E600031D782A0130C10051216630FB007630A9
:1004F600FC00C130FD00FD0B7E2AFC0B7E2AFB0BA7
:100506007E2A1F30C1000630C20078210D30C3009C
:10051600DF200D30C300E920FF203F213E08013ACD
:0C052600031D982A0130C100512108007B
:10053200831603178C1C9F2A0000992A8312031327
:100542003E0803178D0003133F0803178C00831620
:100552008C130C150B08F0008B1355308D00AA304C
:100562008D008C14F01BB72A8B13B82A8B170C1131
:0205720008007F
:1005740083120313BF010130C10007213D2070081D
:10058400003C0318C82A32207008BF003F083E060A
:0C059400031DCE2A4D21CF2ABD2A0800ED
:1005A000831203133E0803178D0083168C130C145B
:0805B00083120C08F0000800A2
:1005B8008312031306131030FB003930FC000D3092
:1005C800FD00FD0BE52AFC0BE52AFB0BE52A0000E4
:1005D800000006171530FB004B30FC00BE30FD0054
:1005E800FD0BF42AFC0BF42AFB0BF42A000008008C
:1005F80083120313BE013108BF0099220130831210
:100608000313BE003208BF0099220230831203137D
:10061800BE003308BF009922033083120313BE00C3
:100628003408BF009922043083120313BE00350832
:10063800BF009922053083120313BE003608BF009D
:100648009922063083120313BE003708BF0099228F
:10065800073083120313BE003808BF009922080030
:1006680083120313BC0108303C020318522B682084
:100678007008BD007008003A03193B2B3C08313E56
:1006880084003D0880000130BE00B4216820700855
:10069800003A0319502B4A2BBC0A372BB901080022
:1006A800DC22EF21BE01F321F130C1000530C20088
:1006B80078210D30C300DF201A30FC00F830FD002F
:1006C800FD0B642BFC0B642B00000D30C300E920EC
:1006D800FF203F21FB30C1000530C20078212230C5
:1006E800C300DF202D30C1000630C200782122303F
:1006F800C300DF200D30C300DF201A30FC00F830C3
:10070800FD00FD0B852BFC0B852B00000D30C30075
:10071800E920FF203F210D30C1000630C2007821BA
:100728002230C300DF203730C1000630C2007821F4
:100738003130BE00D9212230C300DF200D30C30084
:10074800DF200630FB001330FC00AD30FD00FD0B50
:10075800AB2BFC0BAB2BFB0BAB2B000000000A30C8
:10076800C300E920A00120083C07F0003D08031859
:10077800013EF1007008AE007108AF00D8208A1160
:100788000A12F1007108003A0319DC2B20083C0713
:10079800F0003D080318013EF1007008AE00710832
:1007A800AF00D8208A110A12C300DF20A00AB72B95
:1007B8001A30C300DF200A30BE00BA22FF203F21D2
:1007C8000B30FB002630FC005D30FD00FD0BEA2BF2
:1007D800FC0BEA2BFB0BEA2B00000000942108001D
:1007E80083120313A001083020020318122C2008DA
:1007F800313E84000008F10030307102031C0E2CD9
:100808002008313E84000008F1007108393C031CBF
:100818000E2C102CF0010800A00AF72B0130F00074
:020828000800C6
:10082A0083120313BE01D02270080313B1000130F2
:10083A00BE00D02270080313B2000230BE00D022DC
:10084A0070080313B3000330BE00D02270080313EC
:10085A00B4000430BE00D02270080313B50005307E
:10086A00BE00D02270080313B6000630BE00D022A4
:10087A0070080313B7000730BE00D02270080313B4
:06088A00B800B9010800EE
:10089000D8208A110A128000840AAE0A0319AF0A0E
:0808A000F003031D482C0800C1
:0808A800831203130716080078
:1008B00083160313981690308312980083168616B9
:1008C000861383128C1E672C1A08F000612C080016
:1008D0003A267530831603138F0004308500831287
:1008E000850103179E019F0183160313860183125E
:1008F0000617333083169900181558240230FB0070
:100900000430FC00BA30FD00FD0B842CFC0B842C61
:10091000FB0B842C00002A3083168700831287018A
:100920000317990180308316031381001030FB00F8
:100930003930FC000D30FD00FD0B9C2CFC0B9C2C79
:10094000FB0B9C2C000000001524DC220130BE00B3
:10095000F32194215424EF210730FB001730FC00D1
:100960006A30FD00FD0BB22CFC0BB22CFB0BB22C41
:100970000000FB204D2190308B002108003A031924
:10098000D12C5424F42370080319CB2CA530BC00BF
:100990000530BD0054232108003A0319D12CEF2162
:1009A000A10168207008BB007008003A0319E12C0F
:1009B0000130BE00B42168207008003A0319E12C10
:1009C000DB2C3B082A3A031D562DBB013B08003A9D
:1009D000031DEE2C68207008BB00E62C0130BE0021
:1009E000B42168207008003A0319F72CF12C3B0859
:1009F000233A031D562D0130BE00B4216820700833
:100A0000003A0319042DFE2C8B130230C100512132
:100A10003423F42370080319252DFC225424EF21DC
:100A20000730FB001730FC006A30FD00FD0B162D6F
:100A3000FC0B162DFB0B162D0000FB204D21633007
:100A4000BC000530BD005423542D15245424EF213F
:100A50000730FB001730FC006A30FD00FD0B2E2D27
:100A6000FC0B2E2DFB0B2E2D0000FB204D21033007
:100A7000FB000830FC007730FD00FD0B3D2DFC0B2A
:100A80003D2DFB0B3D2D5424EF210730FB0017308B
:100A9000FC006A30FD00FD0B4B2DFC0B4B2DFB0BBE
:100AA0004B2D0000FB204D21A1018B173B08233A61
:0C0AB000031D5C2D4D21FB20BD2C5D2D95
:100C7400203084000E3083120313F000E330AE0002
:080C84000530AF004824080010
:100AC6004434753420346534723420346E347534CD
:100AD6002034723465346734693473347434723450
:100AE6006534723465347434203473346F346D3441
:100AF60020346234723475346734653472342E347B
:100B060020344D34653464342034763465346E34A0
:100B16006C34693467342034683469346C34733423
:100B260065346E342C342034443469346E342034C5
:100B3600563461346E34643461346C3461347234E6
:040B46006D340034D6
:100B4A0041344C34413452344D3420342D34203421
:100B5A0044346534723420346534723420346F344A
:100B6A0070346434613467346534743420347634D0
:100B7A0061346E346434213420344D346534643441
:100B8A002034763465346E346C34693467342034F6
:100B9A00683469346C34733465346E342C342034DC
:100BAA00443469346E342034563461346E346434D7
:0C0BBA0061346C34613472346D340034EA
:020BC6000034F9
:020BC8000034F7
:020BCA000034F5
:100BCC00433461346C346C342034523465346134C5
:060BDC006434793400349A
:100BE200413454342B3443344D34473446343D3449
:040BF2003134003466
:100BF600413454342B3443345334433453343D3426
:020C06000034B8
:100C0800413454342B344334503449344E343D3415
:020C18000034A6
:100C1A00413454342B3443344D34473453343D3403
:020C2A00003494
:100C2C00413454342B3443345234453447343F34F8
:020C3C00003482
:100C3E00413454342B3443345234453447343F34E6
:020C4E00003470
:0A0C500037343434353436340034C0
:080C5A00473453344D340034DB
:060C62004134543400345B
:060C680041345434003455
:060C6E003434353400347B
:02400E00F20FAF
:00000001FF
